:020000040800F2
:10000000209B0020890100080B1200080B12000839
:100010000B1200080B1200080B1200080B1200084C
:100020000B1200080B1200080B1200080B1200083C
:100030000B1200080B1200080B1200080B1200082C
:100040000B1200080B1200080B1200080B1200081C
:100050000B1200080B1200080B1200080B1200080C
:100060000B1200080B1200080B1200080B120008FC
:100070000B1200080B1200080B1200080B120008EC
:100080000B1200080B1200080B1200080B120008DC
:100090000B1200080B1200080B1200080B120008CC
:1000A0000B1200080B1200080B1200080B120008BC
:1000B0000B1200080B1200080B1200080B120008AC
:1000C0000B1200080B1200080B1200080B1200089C
:1000D0000B1200080B1200080B1200080B1200088C
:1000E0000B1200080B1200080B1200080B1200087C
:1000F0000B1200080B1200080B1200080B1200086C
:100100000B1200080B1200080B1200080B1200085B
:100110000B1200080B1200080B1200080B1200084B
:100120000B1200080B1200080B1200080B1200083B
:100130000B1200080B1200080B1200080B1200082B
:100140000B1200080B1200080B1200080B1200081B
:100150000B1200080B1200080B1200080B1200080B
:100160000B1200080B1200080B1200080B120008FB
:100170000B1200080B1200080B1200080B120008EB
:100180000B1200080B12000880B582B000AF00F01F
:1001900097F900F08DFB00F0A3F9412000F07EFB01
:1001A0001A4B3B6004E03B681A1D3A6000221A605B
:1001B0003B68174A9342F6D3422000F06FFB154B81
:1001C0007B60154B3B6007E03B681A1D3A607A681C
:1001D000111D796012681A603B68104A9342F3D38C
:1001E000432000F05BFB00F081FF442000F056FB51
:1001F00001F0C0FC462000F051FB0D2000F04EFB4A
:100200000A2000F04BFB01F081FD00BFF808002040
:1002100024970020C4A2060800000020E608002061
:1002200080B483B000AF174B1B687B607B6843F0E2
:1002300001037B60134A7B681360134B00221A6032
:10024000104B1B687B607B6823F0847323F480333E
:100250007B600C4A7B6813600C4B0D4A1A60094B9B
:100260001B687B607B6823F480237B60054A7B6886
:100270001360084B00221A6000BF0C37BD4680BCDB
:10028000704700BF0038024008380240043802407E
:10029000103000240C38024080B483B000AF0A4B09
:1002A0001B687B607B686FEA53236FEA43237B60A4
:1002B0007B6843F060637B60034A7B68136000BF28
:1002C0000C37BD4680BC70473038024080B483B0E4
:1002D00000AF074B1B687B607B6843F080037B604B
:1002E000034A7B68136000BF0C37BD4680BC704773
:1002F0003438024080B400AF00BFBD4680BC7047B8
:1003000080B483B000AF0B4B1B687B607B6843F409
:1003100080237B607B6843F400137B607B6843F041
:1003200080537B60034A7B68136000BF0C37BD4677
:1003300080BC70474038024080B483B000AF074BA8
:100340001B687B607B6843F480437B60034A7B6867
:10035000136000BF0C37BD4680BC70474438024074
:1003600080B483B000AF474B1B687B607B6843F46D
:1003700080337B60434A7B681360434B3B6008E0FB
:10038000404B1B6803F40033002B06D13B68013B54
:100390003B603B68002BF3DC00E000BF3B68002BB8
:1003A0006ADD3A4B1B687B607B6843F080537B605F
:1003B000364A7B681360364B1B687B607B6843F46E
:1003C00080437B60324A7B681360324B1B687B60E2
:1003D0007B6823F0F0037B602E4A7B6813602D4B13
:1003E0001B687B607B6823F460437B607B6843F41D
:1003F00000437B60274A7B681360264B1B687B6049
:100400007B6823F4E0537B607B6843F4A0537B60FC
:10041000204A7B681360204B7B60204A7B68136016
:10042000184B1B687B607B6843F080737B60154AC8
:100430007B68136000BF134B1B6803F00073002B35
:10044000F9D040F205637B60154A7B681360114B5D
:100450001B687B607B6823F003037B607B6843F051
:1004600002037B600B4A7B68136000BF094B1B686B
:1004700003F00C03082BF9D100BF0C37BD4680BC3C
:10048000704700BF00380240148219004038024013
:10049000007000400838024003154007043802404D
:1004A000003C024080B500AFFFF7F6FEFFF70EFFFD
:1004B000FFF720FFFFF724FFFFF73EFF00BF80BDDF
:1004C00080B500AFFFF7ACFEFFF74AFFFFF7EAFF8A
:1004D00000BF80BD80B400AF00BFBD4680BC704788
:1004E00080B500AFFFF7F6FF00BF80BD80B58EB0CE
:1004F00000AF78607B681B0903F00F033B623B6A27
:10050000082B02D96FF015033FE1A24A3B6A52F86B
:100510002330FB617B6803F00F03BB617B6803F44E
:100520004023B3F5002F17D0B3F5402F17D0B3F504
:10053000802F02D000237B6214E07B6803F4807379
:10054000002B14BF01230023DBB21946786800F0AA
:1005500034F901237B6205E002237B6202E003237E
:100560007B6200BFEFF3108372B67B817B89FB82D5
:10057000FB691B687B63BB695B00032202FA03F320
:10058000DB431A467B6B13407B63BB695B007A6A73
:1005900002FA03F37A6B13437B63FB697A6B1A608D
:1005A00000233B637B6A032B0FD07B6803F440334B
:1005B000B3F5803F03D0B3F5003F03D005E001233E
:1005C0003B6302E002233B6300BFFB690C331B6803
:1005D0007B63BB695B00032202FA03F3DB431A4629
:1005E0007B6B13407B63BB695B003A6B02FA03F3DE
:1005F0007A6B13437B63FB690C331A467B6B136086
:100600007B6A022B05D17B681B0B03F00F033B6356
:1006100001E000233B63BB69072B04D82023FB6266
:10062000BB69BB6204E02423FB62BB69083BBB627D
:10063000FA69FB6A13441B687B63BB6A9B000F2249
:1006400002FA03F3DB431A467B6B13407B63BB6AFE
:100650009B003A6B02FA03F37A6B13437B63FA69EC
:10066000FB6A13441A467B6B13607B6A012B02D032
:100670007B6A022B18D17B6803F44063B3F5006FEB
:100680000BD0B3F5406F0BD0B3F5806F02D00023D1
:100690003B6308E001233B6305E002233B6302E088
:1006A00003233B6300BF01E000233B63FB69083386
:1006B0001B687B63BB695B00032202FA03F3DB4325
:1006C0001A467B6B13407B63BB695B003A6B02FA93
:1006D00003F37A6B13437B63FB6908331A467B6B26
:1006E0001360FB6904331B687B630122BB6902FA58
:1006F00003F33B637B6A012B02D07B6A022B09D197
:100700007B6803F40073002B04D07A6B3B6B1343BC
:100710007B6304E03B6BDB437A6B13407B63FB69D9
:1007200004331A467B6B13607B6A012B25D07B68F0
:1007300003F48073002B20D0BB6903F00C02164B2E
:1007400013443B613B691B687B63BB699B0003F0FF
:100750000C03FB600F22FB6802FA03F3DB431A462B
:100760007B6B13407B633A6AFB6802FA03F37A6B94
:1007700013437B633B697A6B1A60FB8A3B813B893D
:1007800013F0010F00D162B6002318463837BD467A
:1007900080BD00BFE09605080838014080B582B0F2
:1007A00000AF78607B68DBB27B607868FFF79EFE05
:1007B000034618460837BD4680BD80B487B000AFF9
:1007C00078600B46FB707B681B0903F00F033B61ED
:1007D0003B69082B1CD8114A3B6952F82330FB6057
:1007E0007B6803F00F03BB60FB78002B05D0012270
:1007F000BB6802FA03F37B6105E0BB68103301229A
:1008000002FA03F37B61FB6818331A467B691360B5
:1008100000BF1C37BD4680BC704700BFE09605088E
:1008200080B487B000AF78607B681B0903F00F03CA
:100830007B617B69082B16D80E4A7B6952F82330FE
:100840003B617B6803F00F03FB603B6910331B685F
:100850000121FA6801FA02F21340002B14BF0123B0
:100860000023DBB200E0002318461C37BD4680BCE5
:10087000704700BFE096050880B400AF064B012228
:100880001A6000BF044B1B6803F48073002BF9D07F
:1008900000BFBD4680BC70472038014080B483B0A3
:1008A00000AF0346FB7100BF0C37BD4680BC7047EC
:1008B00080B400AF00BFBD4680BC704780B483B039
:1008C00000AF786039607B681A6D3B6813441B6821
:1008D00018460C37BD4680BC704780B485B000AF69
:1008E000F860B9607A60FB681A6DBB6813441A46F9
:1008F0007B68136000BF1437BD4680BC704780B56D
:1009000084B000AF78600B467B807B687A889A87DA
:100910000C217868FFF7D2FFF860FB6823F4D073EE
:10092000FB607B8803F4D073FA681343FB60FA68BA
:100930000C217868FFF7D1FF14217868FFF7BEFF1C
:10094000F860FB6823F00103FB607B8803F0010380
:10095000FA681343FB60FA6814217868FFF7BDFF5B
:1009600000BF1037BD4680BD80B584B000AF786051
:100970000B467B80EFF3108372B67B817B89FB8112
:100980007B8819467868FFF7BAFFFB89BB81BB8972
:1009900013F0010F00D162B600BF1037BD4680BD15
:1009A00080B586B000AF78603960EFF3108372B61F
:1009B0007B817B89FB823B68002B17D00C217868F8
:1009C000FFF77CFF386114217868FFF777FFF86044
:1009D0003B699BB203F4D0739AB2FB689BB203F0FD
:1009E00001039BB213439AB23B681A8000217868D6
:1009F000FFF785FFFB8A3B813B8913F0010F00D194
:100A000062B600BF1837BD4680BD80B588B000AF64
:100A100078607B681B6B3B610C213869FFF74EFFE8
:100A200078613B69DA6C3B695B6C5B08B2FBF3F3A2
:100A3000FB60FB685B09FB61FB695B01FA68D31A29
:100A400001335B08BB61FB69002B0ED17B6943F46A
:100A500000437B61FB681B09FB61FB691B01FA68B2
:100A6000D31A01335B08BB6103E07B6923F40043C5
:100A70007B61FB691B01BB60BA68BB691343BB6048
:100A80007A690C213869FFF728FFBA6808213869AC
:100A9000FFF723FF7B6923F4B0537B613B6993F835
:100AA0004130012B04D17B6943F4C0637B6108E0D2
:100AB0003B6993F84130022B03D17B6943F4806397
:100AC0007B613B6993F84230092B09D03B6993F86D
:100AD0004230082B08D13B6993F84130002B03D0FA
:100AE0007B6943F480537B617A690C213869FFF795
:100AF000F4FE10213869FFF7E1FE78617B6923F489
:100B000040537B613B6993F84330002B03D07B69F2
:100B100043F400537B617A6910213869FFF7DDFEE9
:100B200014213869FFF7CAFE78617B6923F44073AA
:100B30007B617A6914213869FFF7CFFE00BF203747
:100B4000BD4680BD80B586B000AF78600B46FB70B7
:100B50007B681B6B7B617B691B6D0D4A934200D0E8
:100B600013E04FF480233B610A4BFB6000BFFB782E
:100B7000002B05D03A690021F86800F01FFB04E063
:100B800000223969F86800F019FB1837BD4680BDAE
:100B9000004800404038024080B584B000AF786023
:100BA0007B681B6BBB6001217868FFF7CBFFBB68DC
:100BB0005B6D1846FFF79AFCBB689B6D1846FFF704
:100BC00095FC1021B868FFF779FEF860FB6823F404
:100BD0007D53FB60BB6893F84330002B03D0FB6868
:100BE00043F40053FB60FA681021B868FFF775FE04
:100BF0000C21B868FFF762FEF860FB6823F4BE734F
:100C0000FB60FA680C21B868FFF767FE1421B8682A
:100C1000FFF754FEF860FB6823F4E06323F0010360
:100C2000FB60FA681421B868FFF757FE7868FFF791
:100C3000ECFE0C21B868FFF741FEF860FB6843F456
:100C4000005343F00C03FB60FA680C21B868FFF70F
:100C500044FEBB6800229A87BB68012283F84020CB
:100C6000002318461037BD4680BD80B584B000AF64
:100C700078607B681B6BFB60FB68002283F8402078
:100C80000021F868FFF78CFE00217868FFF75AFF13
:100C90000C21F868FFF712FEB860BB6823F400531C
:100CA00023F00C03BB60BA680C21F868FFF715FE4F
:100CB000FB685B6D1846FFF771FDFB689B6D18467E
:100CC000FFF76CFD00BF1037BD4680BD80B584B016
:100CD00000AF78607B681B6BFB60FB6893F8483063
:100CE000FA680949184601F083F9B860BB68002B1F
:100CF00005D1FB6893F84830184600F068FCBB68E3
:100D000018461037BD4680BD3F0D000880B584B041
:100D100000AF78607B681B6BFB60FB6893F8483022
:100D2000184600F02DFCFB6893F8483000220021A3
:100D3000184601F05DF900BF1037BD4680BD80B593
:100D400088B000AFF860B9607A607B687B6101238E
:100D5000FB760023FB613BE00023FB7600217869F2
:100D6000FFF7ACFD03469AB27B69DA877B69DB8FBC
:100D700003F02003002B0CD07B699B8F03F0200332
:100D8000002B06D07B69184605F035FB0123FB7666
:100D900009E07B69DB8F03F00E03002B03D00421F5
:100DA0007869FFF78BFD7B69DB8F03F08003002BF5
:100DB0000BD07B699B8F03F08003002B05D07B69F0
:100DC000184605F0C7FA0123FB76FB690133FB6186
:100DD000FB69FF2B02DCFB7E002BBDD100231846F4
:100DE0002037BD4680BD80B58AB000AFF860B960DD
:100DF0007A60FB689B683B623B6A1B69FB61FB692D
:100E00001B6BBB6100237B62BB6840F20112934203
:100E100003D0B3F5817F32D072E07B687B617B6960
:100E2000002B03D16FF015037B626DE0BB695B6C37
:100E30001946786906F051FABB6993F84130002BE6
:100E400001D0102200E00022BB6993F84130012B51
:100E500001D1202300E0002313431AB2BB6993F8A9
:100E60004330002B01D0042300E0002313431BB2C6
:100E700043F003031BB29AB27B699A8044E07B681B
:100E80003B613B69002B03D16FF015037B623BE0B4
:100E90003B699B8803F00303032B03D06FF015031A
:100EA0007B6231E03B699B8803F01003002B0CD080
:100EB0003B699B8803F02003002B01D0012200E056
:100EC0000222BB6983F8412003E0BB69002283F85A
:100ED00041203B699B8803F00403002B14BF0123CE
:100EE0000023DBB21A46BB6983F84320386906F059
:100EF000E9F90246BB695A64F869FFF786FD03E029
:100F00006FF018037B6200BF7B6A18462837BD4626
:100F100080BD80B584B000AF786039607B681B6BA2
:100F2000FB600421F868FFF7C9FCB860FB68DB8F41
:100F30001B041A46BB681A433B681A60FB68002210
:100F4000DA87BB68DBB218461037BD4680BD80B576
:100F500086B000AF78600B46FB707B681B6B3B6113
:100F6000EFF3108372B6BB81BB89FB813B699B8F1A
:100F7000FB82FB78002B04D0FB8A43F02003FB822A
:100F800005E0FB8A23F4907323F00103FB82FB8AC4
:100F900019463869FFF7E8FCFB897B817B8913F0F0
:100FA000010F00D162B600BF1837BD4680BD80B5C5
:100FB00084B000AF78607B681B6BFB600021F86831
:100FC000FFF77CFC034603F02003002B14BF012332
:100FD0000023DBB218461037BD4680BD80B584B013
:100FE00000AF786039607B681B6BFB603B681A461A
:100FF0000421F868FFF771FC00BF1037BD4680BDC3
:1010000080B586B000AF78600B46FB707B681B6BC9
:101010007B61EFF3108372B6FB81FB897B82FB78E7
:10102000002B0DD07B699B8F43F080033B823B8A72
:1010300019467869FFF798FC786805F08BF908E0A5
:101040007B699B8F23F080039BB219467869FFF779
:101050008BFC7B8ABB81BB8913F0010F00D162B688
:1010600000BF1837BD4680BD80B584B000AF786042
:101070007B681B6BFB600021F868FFF71FFC0346D1
:1010800003F08003002B14BF01230023DBB21846BA
:101090001037BD4680BD80B485B000AF78607B68F6
:1010A000013BFB60FB68002B08DBFB68052B05DCC4
:1010B0000D4AFB6852F82330002B01D100230DE0CC
:1010C000094AFB6852F8233093F84030002B01D1D5
:1010D000002303E0044AFB6852F823301846143713
:1010E000BD4680BC704700BF3497050880B582B00C
:1010F00000AF00237B6010E00B4A7B6852F823307E
:10110000002B07D0084A7B6852F82330002118468C
:10111000FFF746FC7B6801337B607B68052BEBD9CE
:1011200000BF0837BD4680BD3497050880B586B03E
:1011300000AF00233B613B461949184605F0F6FF16
:1011400000237B6124E0174A7B6952F82330002B8F
:1011500018D0144A7B6952F823301B79002B13D125
:101160003B695A1C3A61DBB23033DBB27B720D4A09
:101170007B6952F823301A463B461146184604F064
:10118000F8FF02E000BF00E000BF7B6901337B6134
:101190007B69052BD7D900BF1837BD4680BD00BF7E
:1011A0004C9705083497050880B483B000AF786089
:1011B0007B6818460C37BD4680BC704780B489B048
:1011C00000AFF860B9607A60EFF3108372B6BB824B
:1011D000BB8AFB83FB681B68BB61BB68DB43BA69E6
:1011E0001340BB61BA697B681343BB61FB68BA6992
:1011F0001A60FB8BFB82FB8A13F0010F00D162B6F1
:1012000000BF2437BD4680BC7047EFF305801EF059
:10121000040F02D0EFF309818D466A4602F12002E5
:10122000EFF310832DE9FC4F69466C4624F007026A
:10123000954600F06FFC2146884209D000F12C0150
:10124000B1E8F00F016821E9F00FB0E8FC4F01E0D0
:10125000B1E8FC4F1EF0040F0CBF81F3088881F346
:10126000098883F31088704780B586B000AFF860B6
:10127000B9607A60EFF3108372B6FB82044A0549C5
:10128000032005F0EBFFAB21034800F03FFB00BF5C
:1012900048980508589705087497050880B586B0E2
:1012A00000AFF860B9607A60EFF3108372B6FB822A
:1012B000054B1B68054A0649032005F0CFFFB32103
:1012C000044800F023FB00BF28ED00E05498050817
:1012D000889705087497050880B586B000AFF86058
:1012E000B9607A60EFF3108372B6FB82054B1B681E
:1012F000054A0649032005F0B1FFBB21044800F070
:1013000005FB00BF28ED00E064980508B0970508CC
:101310007497050880B586B000AFF860B9607A6050
:10132000EFF3108372B6FB82044A0549032005F0EF
:1013300095FFC321034800F0E9FA00BF789805083B
:10134000DC9705087497050880B586B000AFF86093
:10135000B9607A60EFF3108372B6FB82044A0549E4
:10136000032005F07BFFCB21034800F0CFFA00BF3C
:1013700088980508FC9705087497050880B586B01D
:1013800000AFF860B9607A60EFF3108372B6FB8249
:10139000044A0549032005F061FFD321034800F00A
:1013A000B5FA00BF9C9805082498050874970508AD
:1013B00080B487B000AFF860B9607A603B60FB68CA
:1013C0000F2B15DDFB68103B7B617B695B114033A4
:1013D0009B001A463B68134403F1E022BB681A6085
:1013E0007B6903F01F0301229A407B681A6027E0A3
:1013F000BB68164A1A60FB68042B04D17B684FF463
:1014000080321A601CE0FB68052B04D17B684FF426
:1014100000321A6014E0FB68062B04D17B684FF49D
:1014200080221A600CE0FB680F2B06D1BB68084ACB
:101430001A607B6801221A6002E04FF0FF3300E07F
:10144000002318461C37BD4680BC704724ED00E0E1
:1014500010E000E080B584B000AF00237B600CE0BA
:101460007B685B1160339B0003F1E0231A464FF069
:10147000FF3313607B6820337B607B68512BEFDD8B
:101480002E4B2F4A1A602F4B4FF080321A602E4B92
:101490004FF080321A602D4B4FF080321A602C4B87
:1014A0001B680133DB00BB602A4BFB6006E0FB6876
:1014B0004FF080321A60FB680433FB60BB685A1E31
:1014C000BA60002BF3D1244B00221A60002223497A
:1014D0000B2000F08DFD00222149032000F088FD43
:1014E00000222049022000F083FD00221E49042032
:1014F00000F07EFD00221D49052000F079FD00224C
:101500001B49062000F074FD00221A490E2000F04D
:101510006FFD002218490C2000F06AFD00221749D7
:10152000002000F065FDF0233B603B6883F31188E9
:1015300062B600BF1037BD4680BD00BF08ED00E0B9
:101540000000000818ED00E01CED00E020ED00E0D8
:1015500004E000E000E400E0E4860020A11A0008B6
:101560006D190008691200084D1A00089D12000844
:10157000D912000815130008491300087D1300084C
:1015800080B586B000AF786007F10C0207F110015A
:1015900080237868FFF70CFF0346002B13D17B688C
:1015A0000F2B04DD3B691A46FB6813600BE03B69B7
:1015B0001B687B61FB68DB437A6913407B613B6995
:1015C0001A467B69136000BF1837BD4680BD80B5E1
:1015D00086B000AF786007F10C0207F1100100231C
:1015E0007868FFF7E5FE0346002B12D17B680F2BCE
:1015F00004DD3B691A46FB6813600AE03B691B681F
:101600007B61FB687A6913437B613B691A467B699E
:10161000136000BF1837BD4680BD80B483B000AFF3
:10162000786000BF0C37BD4680BC704780B483B083
:1016300000AF6B467B607B6818460C37BD4680BCAC
:101640007047F0B58FB008AFF860B960FB6823F061
:101650001F037B612DE07B693B613B691B687B60FD
:101660003A690432126839690831096838690C30FE
:1016700000683C69103424683D6914352D683E6962
:10168000183636683B6903F11C0EDEF8003007930C
:101690000696059504940390029101927B6800934D
:1016A0007B69084A0849002005F0D8FD7B69203392
:1016B0007B617A69BB689A42CDD300BF1C37BD46B7
:1016C000F0BD00BF449A0508AC980508F0B58DB090
:1016D00008AF3A4B1B68FB60FB68002B04D138480D
:1016E00000F03EFA364BFB60FB682C331B687B60D6
:1016F000FB6830331B68FA6834321268F968383195
:101700000968F86808300068FC680C342468FD68D3
:1017100010352D68FE6814363668069605950494D3
:1017200003900291019200937B68264A264900208B
:1017300005F094FDFB6818331B687B60FB681C3365
:101740001B68FA6820321268F96824310968F86861
:101750003C300068FC682468FD6840352D68FE68F0
:1017600044363668069605950494039002910192DA
:1017700000937B68134A1549002005F06FFDFB6854
:1017800048331968FB6804331B68EFF31482BA60AE
:10179000BA68019200930B460A4A0D49002005F0F1
:1017A0005DFDFB6828331B68064A0A49002005F0E6
:1017B00055FD00BF1437BD46F0BD00BFE4860020D4
:1017C000F8090020649A0508E098050814990508AE
:1017D000489905087499050880B584B000AF00F0F9
:1017E00007F90346002B02D0274B1B6801E0274B6B
:1017F0001B687B60FFF71AFF3860FFF767FF7B68A5
:10180000B3F90C30002B07D1214B1B68043BFB6064
:101810004FF48063BB6005E07B681B6BFB607B68FB
:101820009B6ABB603B681B4A1B49002005F016FD04
:10183000FB68184A1949002005F010FDBB68154ADD
:101840001749002005F00AFD3A68FB689A4205D85E
:10185000FA68BB68D21A3B689A420CD30D4A114908
:10186000002005F0FBFCFA68BB68D31AF96818463B
:10187000FFF7E7FE03E0F9683868FFF7E2FE00BF14
:101880001037BD4680BD00BFAC870020F886002021
:10189000DC960508549A05088C990508A499050852
:1018A000BC990508D499050880B584B000AF78606C
:1018B00004F0FEFD124B1B68002B0CD100F098F8D1
:1018C0000346002B02D00F4B1B6801E00E4B1B6838
:1018D0001B68002B10D1EFF3108372B6FB81072039
:1018E00000F084F9FA2000F093F8072000F09AF94C
:1018F000FA2000F08DF8F2E7786800F099FE00BF5A
:10190000E4860020AC870020F886002080B586B0F1
:1019100002AF7860396000F06BF80346002B02D00C
:101920000E4B1B6801E00E4B1B68FB60062000F0AD
:101930005DF904F0BDFDFB68CC3301933B68009377
:101940007B68084A0849002005F088FCFFF744FF3F
:1019500004F0AEFD0120FFF7A7FF00BFAC87002019
:10196000F8860020749A0508109A050880B588B09A
:1019700000AFF860B9607A60BB68FB61FB69443313
:101980001B68023BBB61BB69134A934211D3BB691D
:10199000124A93420DD2BB691B88FB82FB8AB3F5C6
:1019A0005F4F06D17A68B968F86800F079F80346A5
:1019B0000EE0EFF3108372B6BB82094B1B68094A35
:1019C0000949002005F04AFC94210848FFF79EFFD2
:1019D00018462037BD4680BD00000008DCA106087F
:1019E0002CED00E0B89A0508809A0508A09A050831
:1019F00080B400AF054B1B68002B14BF01230023EC
:101A0000DBB21846BD4680BC704700BFE4860020AC
:101A100080B485B000AF78600023FB600DE0002348
:101A2000BB6002E0BB680133BB60BB6844F24C1290
:101A30009342F7D9FB680133FB60FA687B689A42EE
:101A4000EDD300BF1437BD4680BC704780B588B069
:101A500002AFF860B9607A60EFF3108372B6FB8270
:101A6000094A0A49002005F0F9FB094B1A68094B9D
:101A70001B6800931346044A0749002005F0EEFB5B
:101A80005A210648FFF742FF2C9B0508C89A050813
:101A900028ED00E034ED00E0F09A0508149B0508FD
:101AA00080B586B000AFF860B9607A60BB687B61D2
:101AB0007B69DB6A3B613B69012B0DD0012B02D3B3
:101AC000022B10D01EE07B6930331B684C227969F1
:101AD000184605F085FB15E07B6930331B681A4614
:101AE0000B4B1A600EE07B6930331B684C2279691E
:101AF000184605F075FB7B6934331B681A46044BA6
:101B00001A6000BF002318461837BD4680BD00BFCD
:101B1000E486002080B584B000AF7860396004208E
:101B200000F064F80D4B1B68FB600C4A3B681360C7
:101B30007868FFF772FD3968786800F095FA074B0E
:101B40001B683B60054AFB681360042000F06AF8DC
:101B50003B6818461037BD4680BD00BFE4860020B4
:101B600001464FF0000000DF01F12C024FF00103AD
:101B70001360704780B500AF054B002B01D047F0D4
:101B80007BFA00F029F800F069F800BF80BD00BFC3
:101B90007990040880B500AF00F002F800BF80BD66
:101BA00080B582B000AF00237B60094800F082F866
:101BB00078607B68002B06DA7A680649032005F016
:101BC0004DFB7B6800E07B6818460837BD4680BD4A
:101BD000389B0508449B050880B500AF0248FEF716
:101BE00085FC00BF80BD00BF2D08040080B582B019
:101BF00000AF78607B68002B03D101210848FEF715
:101C0000DCFD7B68062B02D07B68072B03D100210B
:101C10000348FEF7D2FD00BF0837BD4680BD00BFB8
:101C20002D08040080B582B000AF78607B68002B7F
:101C300003D100210848FEF7C0FD7B68062B02D0C7
:101C40007B68072B03D101210348FEF7B6FD00BFD7
:101C50000837BD4680BD00BF2D08040080B582B0A6
:101C600000AF00237B6007E04FF480731846FEF757
:101C70003DFC7B6801337B607B68002BF4DD00BF9B
:101C80000837BD4680BD80B582B000AF00237B60C1
:101C90004FF480731846FEF7C3FD0346002B03D1B3
:101CA0007B6843F001037B607B6818460837BD46BC
:101CB00080BD000080B584B000AF7860104A114943
:101CC000062005F0CBFA012006F010FEF860FB6854
:101CD000002B02D16FF012030DE0F968786803F071
:101CE000AEFBB860BB68002B04DA054A0649032046
:101CF00005F0B4FABB6818461037BD4680BD00BF7A
:101D0000B09B0508709B05088C9B050880B586B0C4
:101D100000AF794B01221A70784B00221A60774B82
:101D200000225A60764B00221A60754B00225A60DE
:101D3000744B00221A60734B00225A60724B0022CF
:101D40001A60714B00225A60704B00221A606F4B70
:101D500000225A606E4B00221A606D4B00225A60BE
:101D60006C4B00221A606B4B00225A606A4B0022B7
:101D70001A60694B00225A60684B00221A800023C7
:101D80007B610EE0664A7B69002142F83310644AA9
:101D90007B69DB0013444FF6FF729A807B69013345
:101DA0007B617B690F2BEDDD5C4B1B881BB29BB20B
:101DB00003F00F033B615A4A3B695A4942F833101A
:101DC000564B1B8819B2564A3B69DB0013440A463E
:101DD0009A80F0220021534805F08EF94F4B1B8862
:101DE0001AB2504B9A814F4B03229A764D4B4E4A72
:101DF0001A614C4B4C4A5A614A4B06229A831F2265
:101E00004A494B4805F0C1F9464B002283F8EB20C4
:101E1000484B474A1A60474B00225A60414B454A9B
:101E2000C3F8EC20354BFB60F9683E4804F085FFB1
:101E3000414B3C4A1A603B4806F0B8FE2E4B02224A
:101E40001A703A1D07F108031146184605F0D6FD31
:101E5000BB687A681146184605F0E4FA264B03225F
:101E60001A70364B002B01D000F07AFD344B002B5A
:101E700001D002F001FE334B002B01D001F09CFB9E
:101E8000314B002B01D0AFF30080304B002B01D041
:101E900001F0A5FE2E4B002B01D04AF0FFFE2D4B8A
:101EA000002B01D049F000FB41F0B6FB3FF026FBD0
:101EB00006F05CFE104B04221A7046F04BF9194BE9
:101EC0009B8BDBB21946174800F07AFC154800F0EE
:101ED000C3FC144800F0B0FC124B9B6801221A703E
:101EE000022004F0F1FA044B05221A7000F076F893
:101EF00006F064FDFCE700BFA2870020F886002002
:101F000098870020F086002010870020008700209E
:101F1000E886002008870020A4870020A0870020F2
:101F200018870020440A00200D1D0008109C050899
:101F3000100B0020340B0020AC8700206129000822
:101F4000794A0008B935000800000000DF3B0008AE
:101F50009DCC0408A9B4040880B500AF00F088FB4C
:101F600000F0D2FB00BF80BD80B584B002AFFFF7A8
:101F700011FE00230093064B4FF4006264210548D4
:101F800000F034F9786000BF0837BD4680BD00BF5F
:101F9000C9D000081C9C050880B582B000AF7860ED
:101FA0003960FFF7E1FF002318460837BD4680BDC2
:101FB00080B584B002AF00230093064B4FF400625B
:101FC000F021054800F049F9786000BF0837BD46A8
:101FD00080BD00BF991F0008249C050880B500AF94
:101FE000FFF7BAFFFFF7E4FF0023184680BD00BFEC
:101FF00080B588B000AFF860B9607A606FF0150303
:10200000FB61FB68612B25D8FB68BB61EFF3108394
:1020100072B6BB82BB8AFB82BB68002B06D1F86814
:10202000FFF7AEFA0E4BBB6000237B600D49BB6926
:10203000BA6841F833200B4ABB69DB0013447A6865
:102040005A60FB8A7B827B8A13F0010F00D162B653
:102050000023FB61FB6918462037BD4680BD00BFE9
:10206000D1200008C887002080B586B000AF786016
:102070003960134B7B6100233B617B68FB607B68AD
:10208000612B10D80F4AFB6852F83330002B0AD06E
:102090000C4AFB6852F833307B610A4AFB68DB006C
:1020A00013445B683B617B693A6939687868984793
:1020B000054B1B68054A136000BF1837BD4680BD3D
:1020C000D1200008C8870020F8860020AC870020B7
:1020D00080B586B000AFF860B9607A60EFF3108326
:1020E00072B6FB82FB68044A0449032005F0B6F887
:1020F00041210348FFF70AFC5C9C0508309C050859
:10210000449C050880B58AB002AFF8607A603B60F5
:102110000B46FB72F02005F0C7F9B861BB69002BD4
:1021200002D16FF00B0358E0FB7A1946B86900F052
:1021300047FBF861FB69002B40DBB86900F0F2FB5C
:10214000F861FB69002B3BDB3B68FA7A1946B869FA
:1021500006F0ABFCF861FB69002B33DBFB7A0093E4
:10216000BB6A204A7968B86900F0E2F9F861FB6956
:10217000002B29DBFA6AF968B86900F001FAB8693E
:1021800000F05AFBF861FB69002B1FDBBB699B89E0
:10219000FB82B86900F008FAF861FB69002B0ADAE3
:1021A00000F0F0FA03461B685B42FB610E49B86918
:1021B00004F0E6FD0BE0B7F916300EE000BF06E0D4
:1021C00000BF04E000BF02E000BF00E000BFFB7AF8
:1021D0001946B86900F04AFCFB6918462037BD462D
:1021E00080BD00BFDD2500080887002080B586B0CF
:1021F00002AFF860B9607A603B60BB6901933B68ED
:1022000000937B68BA680021F868FFF77BFF0346FC
:1022100018461037BD4680BD80B588B002AFF86063
:10222000B9607A603B603B6A00933B687A68B96842
:10223000F868FFF7DBFF78617B69002B08DA00F0B4
:10224000A1FA02467B695B4213604FF0FF337B616A
:102250007B6918461837BD4680BD80B586B002AF91
:10226000F860B9607A603B60BB6901933B6800939A
:102270007B68BA680221F868FFF744FF03461846F6
:102280001037BD4680BD00BF80B586B000AF786016
:1022900000F022FC00233B6133E01F4B1B881BB284
:1022A0009BB201339BB21AB21B4B114619801346E5
:1022B000FB82B7F91630002B04DC174B01221A8081
:1022C0000123FB82FB8A03F00F03FB60134AFB68C8
:1022D00052F83330002B11D11049FB687A6841F86D
:1022E00033200E4AFB68DB001344FA8A9A807B682D
:1022F000FA8A9A8100F00EFC002309E03B69013361
:102300003B613B690F2BC8DD00F004FC4FF0FF334D
:1023100018461837BD4680BDA087002018870020CA
:1023200080B586B000AFF860B9607A603B60F8684D
:10233000FFF7AAFF78617B69002B3BD1BB68DAB25B
:10234000FB681A76BB68DAB2FB685A76FB687A6873
:102350001A613A68FB685A6197F8203003F003036A
:1023600087F82030FB689B8B23F003039AB2FB684D
:102370009A83FB689A8B97F820309BB213439AB2EA
:10238000FB689A83FB6838331A460021032000F06B
:1023900015FCFB6800229A76F86806F007FC00F04E
:1023A0009BFB0749F86804F0C8FCFB6804229A7696
:1023B00000F0B0FB7B6918461837BD4680BD00BFF2
:1023C0000887002080B582B000AF786039603B6834
:1023D000002B01D1084B3B607B68CC331F2239684E
:1023E000184604F0D2FE7B68002283F8EB2000BF81
:1023F0000837BD4680BD00BF709C050880B58AB017
:1024000000AF786039607B68CC337B61786904F019
:10241000A6FE034601333B620023FB613B68002BB1
:1024200026D01EE0FB699B003A6813441B681846DF
:1024300004F095FE034601333A6A13443B627B681D
:102440009A6A3B6A9A4202D86FF05A036CE0FB69C1
:102450000133FB61FB69B3F5807F02DD6FF006039A
:1024600062E0FB699B003A6813441B68002BD9D1DA
:10247000FB6902339B003B6178683A693B6A13440D
:10248000194606F0F3FCF860FB68002B02D16FF0F0
:102490000B0349E0FA683B6913447B62FB687A6A84
:1024A0001A60786904F05BFE03460133BB6079690A
:1024B000786A04F03BFEBB687A6A13447B620023AF
:1024C000BB6121E0BB6901339B00FA6813447A6A5F
:1024D0001A60BB699B003A6813441B68184604F0F5
:1024E0003EFE03460133BB60BB699B003A68134460
:1024F0001B681946786A04F019FEBB687A6A1344AF
:102500007B62BB690133BB61BA69FB699A42D9DB63
:10251000FB6901339B00FA68134400221A607B6850
:10252000FA68C3F8EC20002318462837BD4680BD62
:1025300080B586B002AFF860B9607A603B603B7EE0
:1025400000933B687A68B968F868FFF7E9FE0346CC
:1025500018461037BD4680BD80B586B002AFF86022
:10256000B9607A603B60012300933B687A68B96880
:10257000F868FFF7D5FE034618461037BD4680BD04
:1025800080B584B000AFF860B9607A60B968F86867
:10259000FFF718FF7968F868FFF730FF0346184621
:1025A0001037BD4680BD00BF80B584B000AF7860F5
:1025B000EFF3108372B67B817B89FB81786806F02C
:1025C00087FCFB89BB81BB8913F0010F00D162B688
:1025D000002318461037BD4680BD000080B584B08A
:1025E00000AF124B1B68BB600123FB6009E0FB6876
:1025F0000133FB60FB68B3F5807F02DD012000F052
:1026000017F8BB68D3F8EC20FB689B0013441B68E9
:10261000002BECD1BB685B69BA68D2F8EC2011469C
:10262000F86898477860786800F002F8F88600202B
:1026300080B584B000AF7860064B1B68FB607B6898
:10264000DBB27B6000227968F86800F07EFE786873
:1026500006F072FAF886002080B582B000AF78608C
:1026600039600021014800F0D3FEFAE7B08700206E
:1026700080B584B002AF00F02FFA00237B6023E026
:1026800000230093164B4FF40062E0211548FFF73A
:10269000E4FD03467B80B7F90230002B04DA00F03A
:1026A00039FAB7F9023017E00F497B6802337A88AC
:1026B00021F823200C4A7B6802339B00134401223B
:1026C0009A707B6801337B607B68002BD8DD00F05B
:1026D00021FA054BB3F9083018460837BD4680BDCE
:1026E000592600087C9C0508B087002080B582B080
:1026F00000AF7860396000F089F90021014800F0EE
:1027000087FEF8E7BC87002080B584B002AF00F0F8
:10271000E3F900237B6023E000230093164B4FF482
:10272000006264211548FFF798FD03467B80B7F9E6
:102730000230002B04DA00F0EDF9B7F9023017E0AF
:102740000F497B6802337A8821F823200C4A7B6882
:1027500002339B00134401229A707B6801337B6033
:102760007B68002BD8DD00F0D5F9054BB3F90830B4
:1027700018460837BD4680BDED260008849C050834
:10278000BC87002080B582B000AFFFF731F9034667
:10279000002B0CD1084B1B687B607B68002B06D09C
:1027A0007B689B7E032B02D17B686C3300E0034B7C
:1027B00018460837BD4680BDF88600203C0B002037
:1027C00080B584B000AF78600B46FB704FF4327078
:1027D00004F06AFEF860FB68002B02D16FF00B0377
:1027E00026E07B68FA689A60F86800F0F9FEB86045
:1027F000BB68002B07DAF86804F038FE7B6800221B
:102800009A60BB6814E0FB680C3301220021184673
:1028100004F0E0FAFB68043300220021184604F0BB
:10282000D9FAFB6804330021184604F00AFB0023A0
:1028300018461037BD4680BD80B485B000AF7860C3
:102840007B689B68FB60FB6801225A700023184676
:102850001437BD4680BC704780B584B000AF786047
:102860007B689B68FB60FB683433184640F01DFFB3
:10287000FB6803F5EE7318463CF075FA0321104827
:1028800041F06CFBB860BB68002B0CD1012100202B
:1028900041F05DF90221002041F059F9786800F01B
:1028A00033FF034607E0BB68002B02DDB86841F048
:1028B000F1F86FF0160318461037BD4680BD00BF13
:1028C0008C9C050880B586B000AF7860144B1B68FF
:1028D0003B613B699B683833FB607B689B6838339E
:1028E000BB6000237B6114E07B691B01FA68134421
:1028F0009B68002B0AD07B691B01FA68D0187B69A2
:102900001B01BA681344194640F0FAFE7B69013393
:102910007B617B69072BE7DD00BF1837BD4680BDB3
:10292000F886002080B584B000AF78607B689B6833
:10293000FB60FB683433184640F0B7FEFB6803F5D4
:10294000EE7318463CF00FFA7868FFF7BBFF786823
:1029500000F0DAFE034618461037BD4680BD00BFC2
:1029600080B483B000AF00237B600DE00A4A7B682F
:102970000A4942F83310084A7B68DB0013440022FE
:102980005A607B6801337B607B68612BEEDD00BFA2
:102990000C37BD4680BC7047C8870020D120000896
:1029A00080B584B000AF16E0EFF3108372B6BB8041
:1029B000BB88FB810C4804F07AF9B860FB89FB8086
:1029C000FB8813F0010F00D162B6BB68002B02D068
:1029D000B86804F04BFD044B1B68002BE4D100BF2A
:1029E0001037BD4680BD00BFA487002080B400AF73
:1029F000054B1B68002B14BF01230023DBB21846D4
:102A0000BD4680BC704700BFA487002080B500AFE2
:102A1000FFF7C6FF00BF80BD80B500AFFFF7E6FF40
:102A20000346002B01D0012300E00023DBB218464F
:102A300080BD00BF80B485B000AF0346FB80FB883B
:102A400003F00F03FB60084AFB68002142F83310D3
:102A5000054AFB68DB0013444FF6FF729A8000BF03
:102A60001437BD4680BC70471887002080B584B0FD
:102A700000AF78600B46FB700023FB607B68002B87
:102A800022D0144B002B05D07B68B3F90C301846CC
:102A9000AFF300807B68B3F90C30002B05D07B6866
:102AA000B3F90C301846FFF7C5FF7B68DB6A002BD3
:102AB00004D0FB781946786806F002F9786800F0CF
:102AC00004FE786800F0DEFEFB6818461037BD464D
:102AD00080BD00BF0000000080B582B000AF0C4B8D
:102AE0001B687B607B68002B0DD0FEF781FF0346DF
:102AF000002B08D17B68B3F91E309BB201339BB227
:102B00001AB27B68DA83002318460837BD4680BDB9
:102B1000F886002080B584B000AF264B1B68FB60B0
:102B2000FB68002B40D0FEF763FF0346002B3BD130
:102B3000EFF3108372B63B813B897B81FB68B3F96D
:102B40001E30002B08DDFB68B3F91E309BB2013B41
:102B50009BB21AB2FB68DA83FB68B3F91E30002B14
:102B60001BDCFB680022DA83134B1B68002B01D0AF
:102B700006F06CF8FB689B8B03F06003202B0CD1F4
:102B8000FB681B6A002B08D10A4B1A68FB689A4243
:102B900003D0FB6844F620621A627B89FB80FB88C5
:102BA00013F0010F00D162B6002318461037BD465E
:102BB00080BD00BFF88600209887002080B58AB0CD
:102BC00000AFF860B9607A60244B1B683B62002359
:102BD0007B62FFF781FF3B6A9B6BFB617B68002B8D
:102BE00002D07B68FA691A60BB68002B2FD0EFF324
:102BF000108372B63B833B8B7B83FB68022B0BD02D
:102C0000032B12D0012B15D13B6A9A6BBB681B6852
:102C10001A433B6A9A6311E03B6A9A6BBB681B6874
:102C2000DB431A403B6A9A6308E0BB681A683B6A58
:102C30009A6303E06FF015037B6200BF7B8BFB821E
:102C4000FB8A13F0010F00D162B600F027F8FFF7FE
:102C500061FF7B6A18462837BD4680BDF886002094
:102C600080B586B000AFF860B9607A607A68B968FC
:102C7000F868FFF7A3FF78617B69002B08DAFFF79C
:102C800081FD02467B695B4213604FF0FF337B613D
:102C90007B6918461837BD4680BD00BF90B585B02A
:102CA00000AF1F4B1B68FB60FFF716FFFB689B6BB9
:102CB000DC43F86801F02CF8034623403B603B6896
:102CC000002B03D1FFF726FF002324E03B461846E4
:102CD00000F0A8F8B860BB68B3F1FF3F15D03B46E1
:102CE000B968184604F000F9B968F86800F01AF8F5
:102CF00078607B68002B08D07B6804331946F8683D
:102D000000F09EF9786800F04DF83B68002BDDD1AB
:102D1000FFF700FF012318461437BD4690BD00BFE2
:102D2000F886002080B588B000AF786039607B6895
:102D30009B687B61EFF3108372B63B823B8A7B8298
:102D40000023BB617B695B6AFB6104E0FB69BB61DB
:102D5000FB691B68FB61FB69002B05D0FB691B79D4
:102D60001A463B689A42F1D1FB69002B0ED0BB6931
:102D7000002B06D07B6924331946B86903F0B5FFF0
:102D800004E07B692433184603F091FF7B8AFB81C2
:102D9000FB8913F0010F00D162B6FB69184620379A
:102DA000BD4680BD80B586B000AF78607B681B7B78
:102DB000002B11D1EFF3108372B67B827B8AFB82EA
:102DC0001649786803F0E5FEFB8ABB82BB8A13F0E4
:102DD000010F00D162B61CE07B681B7B022B11D176
:102DE000EFF3108372B6FB81FB89FB820C49786894
:102DF00003F0CFFEFB8A3B823B8A13F0010F00D128
:102E000062B606E07B681B7B012B02D1786800F07C
:102E100039FD00BF1837BD4680BD00BF008B0020C4
:102E2000F88A002080B584B000AF78600023FB6092
:102E30000BE0F968786804F083F80346002B01D0B2
:102E4000FB6807E0FB680133FB60FB681F2BF0DDCC
:102E50004FF0FF3318461037BD4680BD80B588B0AF
:102E600000AF786039600023FB61FFF735FE7B68B7
:102E70009A683B681B781946104601F08BF8B861D8
:102E8000BB69002B2FD0BB695B68002B2BD001F0F6
:102E9000A5F878617B69002B03D16FF00B03FB6110
:102EA00021E0BB695A687B695A60BB699A687B6993
:102EB0009A607B690C3308223968184604F090F94F
:102EC000EFF3108372B6FB81FB897B827B68403312
:102ED0001946786903F05DFE7B8A3B823B8A13F0DA
:102EE000010F00D162B6FFF715FEFB6918462037C7
:102EF000BD4680BD80B584B000AFFEF779FD0346C6
:102F0000002B0BD0184803F0D2FEF860FB68002BB2
:102F100025D1164803F0CBFEF86020E0EFF31083D4
:102F200072B6FB80FB887B810F4803F0C0FEF8601F
:102F30007B893B813B8913F0010F00D162B6FB68AE
:102F4000002B0CD1FB68002B03D1102004F09CFA5D
:102F5000F860FB68002B02D0FB6801221A73FB6843
:102F600018461037BD4680BD008B0020F88A00202F
:102F700080B487B000AF7860396000237B61EFF3E5
:102F8000108372B63B823B8A7B827B685B6A7B6183
:102F900002E07B691B687B617B69002B05D07B6944
:102FA0001B791A463B689A42F3D17B8AFB81FB89E5
:102FB00013F0010F00D162B67B6918461C37BD467D
:102FC00080BC704780B586B000AF786039607B68A0
:102FD0009B687B613B681B7819467869FFF7C8FFDF
:102FE00038613B69002B07D03B69043308223968FC
:102FF000184604F0F5F81FE0FFF77CFF38613B69E5
:10300000002B19D03B69043308223968184604F0B4
:10301000E7F8EFF3108372B67B817B89FB817B69D4
:1030200024331946386903F0B4FDFB89BB81BB89A1
:1030300013F0010F00D162B600BF1837BD4680BD46
:1030400080B586B000AF7860396000237B617B6813
:1030500003F138023B681B781946104603F070FFF5
:103060000346002B36D0EFF3108372B63B823B8AC7
:103070007B827B689B7E062B20D17B6803F13C0220
:103080003B681B781946104603F05AFF0346002B95
:1030900014D07B68503308223968184604F0A0F831
:1030A0007B680022DA63786805F012FF7B8AFB8177
:1030B000FB8913F0010F00D162B646E07B8ABB8129
:1030C000BB8913F0010F00D162B639687868FFF749
:1030D00079FF3AE039687868FFF7C0FE7861EFF36E
:1030E000108372B67B817B897B821A49786805F0F0
:1030F00009FE7B689B7E062B0CD17B68503308222F
:103100003968184604F06CF87B680022DA63786846
:1031100005F0DEFE7B8A3B813B8913F0010F00D175
:1031200062B67B689B7E052B03D10421786800F092
:10313000D0FC7B689B7E072B03D07B689B7E082B93
:1031400003D10421786800F035FB7B6918461837F5
:10315000BD4680BD9131000880B584B000AF034604
:103160003960FB80B7F90630184600F0C1FBF86003
:10317000FB68002B02D16FF0020304E03968F868A5
:10318000FFF75EFF034618461037BD4680BD00BFFF
:1031900080B58CB000AF7860EFF3108372B6FB821D
:1031A000FB8AFB857B689B8B03F48073002B07D025
:1031B000FB8DBB82BB8A13F0010F00D162B675E0B4
:1031C0007B684033184603F072FDB862BB6A002B7F
:1031D00007D1FB8D7B827B8A13F0010F00D162B691
:1031E00064E07B689B8B43F480739AB27B689A831C
:1031F0007B6848331946B86A03F0CBFC7B68DB6E0A
:103200007B627B689B6B3B62BB6A9A683B6A1A4332
:10321000BB6A1B7B194601238B401343FB617B6810
:10322000FA699A63FB8DBB81BB8913F0010F00D152
:1032300062B6BB6A5B68BA6A127B1046BA6A02F170
:103240000C0100229847EFF3108372B6FB81FB89D3
:10325000FB857B689B8B23F480739AB27B689A838F
:103260007B687A6ADA667B689A6BFB695340BB615C
:103270007B689A6BBB691A40BB69D9433B6A0B40B8
:103280001A437B689A637B6848331946B86A03F02F
:10329000D6FCFB8D3B823B8A13F0010F00D162B656
:1032A000FFF7FCFCB86A00F0D7FE75E700BF3037C7
:1032B000BD4680BD80B584B000AF786039607B6862
:1032C0009B68FB60FB68002B23D07B689B8B03F023
:1032D0000303012B08D0FB689B68002B04D0FB681C
:1032E0009B683A6812021A60FB685B78012B10D168
:1032F000FB6800229A60FB680022DA7004E0FB6839
:103300000433184600F05AFBFB689B881BB2002B65
:10331000F5DB00BF1037BD4680BD80B584B000AF7F
:1033200078607B689B68FB60FB68002B09D0FB68BA
:103330005B78012B05D17B689B68B833184603F096
:103340001DFE00BF1037BD4680BD80B584B000AF04
:10335000F860B9601346FB71FB689B8B03F4007344
:10336000002B1AD1F86800F01CF8B968F868FFF76C
:10337000A1FFFB79002B02D1F868FFF7CEFFF868B8
:1033800000F0A3F9F86800F0A7FEFB689B8B43F4FC
:1033900000739AB2FB689A8300E000BF1037BD4605
:1033A00080BD80B582B000AF7860786800F00AF820
:1033B000786800F065FB786800F0D8F900BF08373E
:1033C000BD4680BD80B584B000AF7860EFF3108358
:1033D00072B6BB81BB89FB817B685B6A002B0CD01A
:1033E0007B685B6A184601F083F87B685B6A184665
:1033F00001F0D8F87B6800225A62FB897B817B89C7
:1034000013F0010F00D162B600BF1037BD4680BD7A
:1034100080B58EB000AF786039604FF0FF33BB628B
:10342000EFF3108372B67B827B8A7B86524B1B68DC
:103430007B627B681B687B6351E04F4B1B683B6280
:103440007B6B1B693A6AD31AFB627B6B5A69FB6A16
:103450009A4228D87B681946786B03F091FC7B6B05
:103460009B68FB61FB69002B19D07B6BDB68BB6140
:103470007B6B00229A607B8EFB81FB8913F0010F2E
:1034800000D162B6FB69B8699847EFF3108372B652
:103490003B823B8A7B867B681B687B631FE07B6B80
:1034A0001B687B631BE03A6A7B6AD31AFA6A13448F
:1034B000FB627B6B5A69FB6A9A4202D27B6B5B6947
:1034C000FB627B6B5A69FB6AD31A7B617A69BB6AC0
:1034D0009A4201D27B69BB627B6B1B687B637B6B0F
:1034E000002BAAD13B68002B03DCBB6AB3F1FF3F82
:1034F00020D107F10803184603F015FD07F1080372
:103500001121184603F0D2FC7A683B6802339B0015
:10351000134400229A7007F1080300220021184684
:1035200000F046FC7A683B6802339B00134401229A
:103530009A7015E07A683B6802339B0013440022BE
:103540009A70BA6A13469B0013445B00184600F059
:103550000FFE7A683B6802339B00134401229A7085
:103560007B8EBB81BB8913F0010F00D162B600BF17
:103570003837BD4680BD00BF400B002080B584B009
:1035800000AF78600023FB6006220B2140F2DB7065
:1035900003F0B1FEF860FB68064A02FB03F27B68A9
:1035A0001A607B6800225A60002318461037BD4617
:1035B00080BD00BF8051010080B400AF00BFBD4698
:1035C00080BC704780B400AF044B1B680133034AD2
:1035D000136000BFBD4680BC704700BF400B002099
:1035E00080B586B000AF78601E4B1B68BB600023BF
:1035F0007B610023FB60FFF76FFABB689B68002BC1
:1036000028D0BB689B681B6B002B23D0BB689B68D2
:10361000DB6A3B6100237B613B69002B14D0386976
:1036200003F032FF78617B69002B05D100233B61F9
:103630006FF00B03FB6007E0BB689B681B6B3A698C
:103640001946786903F0CCFD7B683A69DA627B68D9
:103650007A691A63FFF75EFAFB6818461837BD46A9
:1036600080BD00BFF886002080B582B000AF7860D2
:10367000786800F05AFD786800F0DDF87B68343334
:10368000184640F020F8786803F0F1F97B6803F5FC
:10369000EE7318463BF075FB786801F013F8786814
:1036A00000F04FF87B689B78002B07D07B681B7875
:1036B00043F00803DAB27B681A7002E0786800F021
:1036C000E1F800BF0837BD4680BD80B584B000AFCB
:1036D00078607B689B68FB60FB68002B10D0FB6800
:1036E0005B78012B06D9FB685B78013BDAB2FB689B
:1036F0005A7002E0F868FFF7B7FF7B6800229A6013
:1037000000BF1037BD4680BD80B582B000AF786085
:103710007B689B68184603F073F97A6801210020E2
:1037200041F091FC7A680621012041F08CFC7A6816
:103730000621022041F087FC002318460837BD46C9
:1037400080BD80B582B000AF786006E07B68D3F8BA
:10375000C0327968184642F063F87B68D3F8C0320B
:10376000002BF3D100BF0837BD4680BD80B483B0C5
:1037700000AF78607B689B7E072B09D17B689B6DCF
:10378000B3F9122092B2013A92B212B25A820CE00C
:103790007B689B7E082B08D17B689B6DB3F910205A
:1037A00092B2013A92B212B21A8200BF0C37BD46F1
:1037B00080BC704780B586B000AF78603960EFF3A9
:1037C000108372B6FB81FB89FB827B689B7E072B93
:1037D00003D07B689B7E082B22D17B689B6D3B616D
:1037E0007B6800229A657B689B7E072B09D13B6929
:1037F000B3F912309BB2013B9BB21AB23B695A82B9
:1038000008E03B69B3F910309BB2013B9BB21AB29E
:103810003B691A827B683A68DA66786805F058FB7B
:10382000FB8ABB81BB8913F0010F00D162B600BFD8
:103830001837BD4680BD80B584B000AF786013E016
:103840007B681B69FB60FB681A687B681A61FB6810
:103850000C33184600F080F8FB680A33184600F075
:103860007BF8F86800F00EF87B681B69002BE7D145
:103870007B680C33184600F06FF800BF1037BD4668
:1038800080BD000080B584B000AF7860FEF7B0F86E
:103890000346002B04D103F0D5FD0346002B13D0C3
:1038A000EFF3108372B67B817B89FB810B497868CB
:1038B00003F06FF900F014F8FB89BB81BB8913F0AA
:1038C000010F00D162B604E0786803F0CFFD03F089
:1038D000C3FD00BF1037BD4680BD00BFA4870020D8
:1038E00080B500AF012000F0A9FE00BF80BD00BF81
:1038F00080B487B000AF0346FB8000237B61B7F93B
:103900000630002B1FDBFB8803F00F033B61EFF356
:10391000108372B6BB81BB89FB810E4A3B69DB0019
:103920001344B3F90430B7F906209A4204D1094A86
:103930003B6952F833307B61FB897B817B8913F0D3
:10394000010F00D162B67B6918461C37BD4680BCAA
:10395000704700BF1887002080B483B000AF786044
:103960007B68002B09D07B681B881BB2002B02DB15
:103970007B6801221A80002301E06FF015031846CE
:103980000C37BD4680BC704780B584B000AF78600E
:103990007868FFF7E1FFF860FB68002B08DAFEF7B4
:1039A000F1FE0246FB685B4213604FF0FF33FB60A1
:1039B000FB6818461037BD4680BD000080B586B054
:1039C00000AF786000237B616FF015033B617B687B
:1039D000002B34D0EFF3108372B6BB81BB89FB811F
:1039E0007B681B881BB29BB201339BB21AB27B6807
:1039F0001A807B681B881BB2002B17DC124B1B68DC
:103A00007B6102E07B691B687B617B69002B04D0D2
:103A10007B695A6B7B689A42F4D17B69002B05D095
:103A20007B6900225A63786905F052FA00233B61F2
:103A3000FB897B817B8913F0010F00D162B63B6962
:103A400018461837BD4680BDF086002080B584B08A
:103A500000AF78607868FFF7B1FFF860FB68002B73
:103A600008DAFEF78FFE0246FB685B4213604FF0F8
:103A7000FF33FB60FB6818461037BD4680BD00BFB2
:103A800080B487B000AF7860EFF3108372B6FB812B
:103A9000FB89FB827B689B7E052B0ED17B685B6B71
:103AA0003B613B691B881BB29BB201339BB21AB2CC
:103AB0003B691A807B6800225A63FB8ABB81BB8901
:103AC00013F0010F00D162B600BF1C37BD4680BCA9
:103AD000704780B586B000AF78603960EFF310832F
:103AE00072B6FB81FB89FB827B689B7E052B14D120
:103AF0007B685B6B3B613B691B881BB29BB20133EC
:103B00009BB21AB23B691A807B6800225A637B68B9
:103B10003A68DA66786805F0DBF9FB8ABB81BB8915
:103B200013F0010F00D162B600BF1837BD4680BD4B
:103B300080B586B000AF78600B467B8013467B7003
:103B40007A8813465B001344DB00184603F09CFCA4
:103B5000F860FB687B6100233B610DE07B697A784C
:103B60001A757B6903F118027A617968184603F0C7
:103B700010F83B6901333B617A883B699A42EDDC7E
:103B8000FB6818461837BD4680BD80B586B000AFCB
:103B900078600B467B8013467B707B881B01184640
:103BA00003F072FCF860FB687B6100233B610DE071
:103BB0007B697A781A737B6903F110027A617968FC
:103BC000184602F0E6FF3B6901333B617A883B69A6
:103BD0009A42EDDCFB6818461837BD4680BD80B5BB
:103BE00000AF214B00221A601F4B00225A601F4B6E
:103BF00000221A601D4B00225A601D4B00221A60E1
:103C00001B4B00225A601B4B00221A60194B0022EA
:103C10005A60194B00221A60174B00225A6000228A
:103C200010211248FFF784FF0246144B1A6002224B
:103C300008210F48FFF77CFF0246114B1A6000F085
:103C400025F8002210210B48FFF79FFF02460D4B7D
:103C50001A60022208210848FFF797FF02460A4B24
:103C60001A6000BF80BD00BFE08A0020E88A002003
:103C7000F08A0020008B0020F88A0020480B0020EA
:103C80004C0B0020500B0020540B002080B582B05C
:103C900000AF4FF4A07003F0F7FB02460C4B1A6024
:103CA0000B4B1B687B6000233B600AE07B6803F1E1
:103CB00014027A600749184602F06BFF3B68013333
:103CC0003B603B680F2BF1DD00BF0837BD4680BD70
:103CD000440B0020E08A002080B584B000AF7860FB
:103CE0000A4B1B68BB604FF0FF33FB607B68002B07
:103CF00007D0B86800F00CF802467B681A60002311
:103D0000FB60FB6818461037BD4680BDF886002072
:103D100080B588B000AF78607B689B68BB6100238A
:103D2000FB60EFF3108372B6BB82BB8AFB82BB6978
:103D30005B6AFB610BE0FB691B791A4607F10C0318
:103D40001146184603F0B2F8FB691B68FB61FB697A
:103D5000002BF0D1FB8A7B827B8A13F0010F00D10C
:103D600062B6FB6818462037BD4680BD80B584B07A
:103D700000AF786039603B68FB60FB689B7E062B78
:103D800012D1FB68FF2283F85020FB68022283F8DF
:103D90005120FB68742283F85220FB6800225A6588
:103DA000FB68184605F094F800BF1037BD4680BD8B
:103DB0002DE9904892B002AFF860B9607A60634B29
:103DC0001B68BB63EFF3108372B67B847B8CFB862E
:103DD000FB681C68B86BFFF79BFF03462340BB6181
:103DE000BB69002B22D007F118031846FFF71AF819
:103DF00003461946B86BFEF795FF3863BB68002B86
:103E000006D03B6B043308221946B86803F0E8F982
:103E10003B6B1B79FB63386BFEF7C4FFFB8E3B8467
:103E20003B8C13F0010F00D162B688E0FB681A6882
:103E3000BB6BDA637B68002B4ED07B681B684FF04E
:103E40000004434A02FB04F1002202FB03F20A448D
:103E50003F49A3FB0134224414467A685268114654
:103E60004FEAE1725B1844EB020442F20F714FF02B
:103E7000000213EB010B44EB020C5846614642F280
:103E800010724FF0000345F0B7FD03460C46C7E93A
:103E90000A34BB6A7B6200F097F90246BB6B5A6238
:103EA000BB6B5B6A002B1BD0BB6B7B61BB6B586A27
:103EB0007B6900930123274A796A00F01FFA0621E3
:103EC000B86B04F081FDBB6B5B6A184600F06AFBBF
:103ED000BB6B00225A6203E00621B86B04F074FD4C
:103EE000BB6B0022DA63BB6B93F850301F2B12D8E8
:103EF000BB6B93F850301946F86803F021F803467D
:103F0000002B04D0BB6B93F85030FB6306E06FF0DE
:103F10000303FB6302E06FF00A03FB63BB68002B43
:103F200006D0BB6B503308221946B86803F058F925
:103F3000FB8EFB83FB8B13F0010F00D162B6FB6B92
:103F400018464037BD46BDE8908800BFF88600207F
:103F500000CA9A3B6D3D000880B586B000AFF8609E
:103F6000B9607A607A68B968F868FFF721FF78610C
:103F70007B69002B08DAFEF705FC02467B695B4291
:103F800013604FF0FF337B617B6918461837BD46DD
:103F900080BD00BF80B584B000AF78603960002379
:103FA000FB607B68002B13D0FEF796FD7B68DB6916
:103FB000FB6002E0FB681B68FB60FB68002B05D020
:103FC000FB681B7C1A463B689A42F3D1FEF7A2FDC0
:103FD000FB6818461037BD4680BD000080B584B030
:103FE00000AFFDF705FD0346002B0BD0184802F08B
:103FF0005EFEF860FB68002B25D1164802F057FEE4
:10400000F86020E0EFF3108372B6FB80FB887B81C1
:104010000F4802F04CFEF8607B893B813B8913F02E
:10402000010F00D162B6FB68002B0CD1FB68002B9E
:1040300003D1182003F028FAF860FB68002B02D0A7
:10404000FB6801221A75FB6818461037BD4680BD13
:10405000E88A0020F08A002080B586B000AF786042
:104060007B681B7D002B11D1EFF3108372B67B822E
:104070007B8AFB821649786802F08BFDFB8ABB8243
:10408000BB8A13F0010F00D162B61CE07B681B7D78
:10409000022B11D1EFF3108372B6FB81FB89FB82F7
:1040A0000C49786802F075FDFB8A3B823B8A13F06D
:1040B000010F00D162B606E07B681B7D012B02D1A7
:1040C0007868FFF7DFFB00BF1837BD4680BD00BF33
:1040D000E88A0020F08A002080B584B000AF7860C4
:1040E00002E0F868FFF7B8FF7B684033184602F03B
:1040F000DEFDF860FB68002BF3D102E0F868FFF703
:10410000ABFF7B684833184602F0D1FDF860FB68CE
:10411000002BF3D17B684FF0FF329A637B6800225B
:10412000DA6300BF1037BD4680BD80B584B000AFF4
:10413000786002E0F86800F087FB7B681C33184663
:1041400002F0B5FDF860FB68002BF3D102E0B8681F
:10415000FEF728FE7B682433184602F0A8FDB860FD
:10416000BB68002BF3D100BF1037BD4680BD0000F7
:1041700080B586B000AF786000237B617B68002B40
:1041800019D07B680E4AA2FB03239B0C3B613B6961
:10419000BB603B690B4A02FB03F37A68D31A4FF406
:1041A0007A7202FB03F3FB6007F108030021184653
:1041B00000F0A4FB78617B6918461837BD4680BDC6
:1041C00083DE1B4340420F0080B584B000AFEFF3A5
:1041D000108372B63B813B897B811E4B1B88042B6D
:1041E00004D8FDF705FC0346002B1AD01A4802F04C
:1041F0005EFDF860FB68002B0BD0164B1B88013B63
:104200009AB2144B1A80FB6800221A60FB680022E5
:104210001A737B89FB80FB8813F0010F00D162B613
:1042200013E07B89BB80BB8813F0010F00D162B61D
:10423000182003F029F9F860FB68002B05D0FB6813
:1042400000221A60FB6802221A73FB6818461037B6
:10425000BD4680BD108B0020088B002080B582B049
:1042600000AF254B1B689B68002B40DC36E02248E2
:1042700002F01DFD7860204B1B68002B08D01E4B00
:104280001B681D4A126891687A6892680A449A60AD
:104290007B681B7B23F00103DAB27B681A737B68AF
:1042A0005B7B012B09D0022B0FD0002B00D015E037
:1042B0007B685B680020984710E07B685B687A68E1
:1042C000126911460120984708E07B685B687A68AC
:1042D00011697A6852690220984700BF064B1B6833
:1042E000002B04D0044B1B689B68002BBFDD00BF74
:1042F0000837BD4680BD00BF148B002008B480B5D0
:104300008DB000AFF860B9607A60FB68002B05D013
:10431000FB6B022B02DCBB68002B02DA6FF015038B
:10432000CAE0EFF3108372B6FB82FB8AFB83FB6863
:104330001B7B03F00103002B02D0F86800F0D8F8D3
:10434000FB687A685A60FB6BDAB2FB685A7307F154
:1043500040033B6100233B620BE03B691A1D3A615D
:104360001968FB683A6A043243F822103B6A013349
:104370003B623A6AFB6B9A42EFDB08E0FB683A6A01
:104380000432002143F822103B6A01333B623B6A4E
:10439000012BF3DDBB68002B02DC0123BB6008E0CE
:1043A000BB680133BB60BB68002B02DCBB68013B10
:1043B000BB60454B1B68002B04D14349F86802F0F1
:1043C000E8FB67E000237B623F4B1B68FB62FB6AF4
:1043D000BB6204E0FB6ABB62FB6A1B68FB62FB6AB0
:1043E0009B687A6A13447B627B6A002B0EDAFB6A55
:1043F0001B68002BEED109E0FB6ABB62FB6A1B68FD
:10440000FB62FB6A9B687A6A13447B627A6ABB68C8
:104410009A4203DCFB6A1B68002BEDD1BA687B6A09
:104420009A421CDAFB6A9B687A6AD31ABA68D31A72
:10443000BB60FB6A9A68BB68D21AFB6A9A60224B1F
:104440001A68FB6A9A4204D11F49F86802F0C0FB5F
:1044500020E01D4AF968B86A02F0D2FB1AE0BA6897
:104460007B6AD31ABB60FB6A1B68002B04D1164918
:10447000F86802F08EFB0DE0FB6A1B68BB61BB694C
:104480009A68BB68D21ABB699A600F4AF968F86AE1
:1044900002F0B6FBFB68BA689A60FB681B7B43F0CE
:1044A0000103DAB2FB681A73FB8BBB82BB8A13F081
:1044B000010F00D162B6002318463437BD46BDE86F
:1044C000804001B0704700BF148B002080B500AF62
:1044D000064B1B68002B06D0044B1B689A68013AF8
:1044E0009A60FFF7BBFE00BF80BD00BF148B0020A9
:1044F00080B588B000AF78606FF015037B61EFF393
:10450000108372B63B823B8A7B827B68002B3BD058
:104510007B681B7B03F00103002B35D00023BB61BC
:104520001F4B1B68FB6104E0FB69BB61FB691B68F7
:10453000FB61FB69002B03D0FA697B689A42F3D1D7
:10454000FB691B68002B08D0FB691B68FA691268BD
:104550009168FA6992680A449A60BB69002B04D09A
:104560000F49B86902F0C1FB02E00D4802F09FFB61
:104570007B6800221A607B681B7B23F00103DAB2A0
:104580007B681A7300237B617B8AFB81FB8913F0B4
:10459000010F00D162B67B6918462037BD4680BD49
:1045A000148B002080B586B000AF7860EFF31083E5
:1045B00072B6BB82BB8AFB827B681B7B03F0010364
:1045C000002B02D07868FFF793FF7B681B7B03F01A
:1045D0000203002B0AD0FB8A7B827B8A13F0010F37
:1045E00000D162B67868FFF74DF91EE07B681B7B4F
:1045F00003F00403002B11D10E49786802F0C9FAC8
:104600000D4B1B8801339AB20B4B1A80FB8A3B82FD
:104610003B8A13F0010F00D162B606E0FB8AFB81F2
:10462000FB8913F0010F00D162B60023184618373A
:10463000BD4680BD088B0020108B002080B586B061
:1046400000AF78607B68002B04D11C4B7B61012399
:104650003B610AE07B68012B04D1194B7B6101238C
:104660003B6102E06FF0150324E00023FB600BE0E8
:104670007A69FB6802339B0013449B78DBB2002B02
:1046800007D0FB680133FB60FA683B699A42EFDBB5
:1046900000E000BFFA683B699A4201DB002309E0B1
:1046A0007B69FA68023233F922301121184600F092
:1046B000D9F8034618461837BD4680BDB08700209C
:1046C000BC87002080B582B000AF78607B681B6B30
:1046D000002B04D07B681B6B1846FFF7D3F87B6870
:1046E0000022DA627B6800221A6300BF0837BD46E9
:1046F00080BD000080B582B000AF094802F0D7FA53
:1047000078607B68002B05D1FFF7C0FA044802F0FF
:10471000CEFA78607B6818460837BD4680BD00BF7A
:10472000E08A002080B588B000AFF860B9607A6098
:10473000FB70354B1B68BB61BB699B687B61FB6889
:104740001F2B02D96FF015035AE0F9687869FFF75B
:1047500021FCF8617B68002B18D0FB69002B0CD082
:10476000FB695A687B681A60FB699A687B685A60C3
:10477000FB69DA687B689A6008E07B6800221A604F
:104780007B6800225A607B6800229A60BB68002B1D
:1047900001D1002334E0BB681B683B613B69002BFF
:1047A0000CD1FB69002B2AD07B691C331946F869B0
:1047B00002F045FAF86900F047F820E0FB69002BA9
:1047C00012D1FFF797FFF861FB69002B02D16FF060
:1047D0000B0315E0FB68DAB2FB691A747B691C33C2
:1047E0001946F86902F0D5F9FB693A695A60BB6865
:1047F0005A68FB699A60BB689A68FB69DA600023B3
:1048000018462037BD4680BDF886002080B586B0AA
:1048100000AFF860B9607A6000237A68B968F86818
:10482000FFF780FF78617B69002B08DAFDF7AAFFAC
:1048300002467B695B4213604FF0FF3300E00023C8
:1048400018461837BD4680BD80B582B000AF78608D
:104850000349786802F09DF900BF0837BD4680BD66
:10486000E08A002080B586B000AF03463960FB8047
:10487000B7F90630002B02DC6FF057031CE03B68F1
:104880001F2B02D96FF0150316E0FEF725F93B68E0
:10489000DBB23B7300237B730423BB7300233B61B8
:1048A00007F10C02B7F9063011461846FEF754FC22
:1048B0007861FEF72FF97B6918461837BD4680BD31
:1048C00080B584B000AF03463960FB80B7F906308D
:1048D00039681846FFF7C6FFF860FB68002B08DA56
:1048E000FDF750FF0246FB685B4213604FF0FF3359
:1048F000FB60FB6818461037BD4680BD80B58CB0A4
:1049000000AF786039607B68002B08D07B685B68FB
:10491000002B04DB7B685B682A4A934202DD6FF060
:1049200015034AE0EFF3108372B67B837B8B7B85A4
:10493000254B1B687B6207F11003184602F0F3FA5F
:1049400007F110037A6800211846FFF731FA386240
:104950003B6A13F10B0F08D17B8D3B833B8B13F02C
:10496000010F00D162B6002327E03B68002B1CD06A
:1049700007F10C031946786800F020F9124B1A6809
:104980007B6AD31AFB61FB681A46FB69934202D328
:104990000023FB6204E0FB681A46FB69D31AFB6242
:1049A000FB6A3968184600F049F97B8DFB82FB8A67
:1049B00013F0010F00D162B63B6A18463037BD468E
:1049C00080BD00BFFFC99A3B400B002080B58CB072
:1049D00000AFB9607A603B600346FB73BB6803F0CD
:1049E0000103002B31D0EFF3108372B63B853B8D72
:1049F0007B8507F11402FB7B1146184600F06EF828
:104A0000F862FB6A002B09DA7B8DFB84FB8C13F0C8
:104A1000010F00D162B64FF0FF3328E007F11C020E
:104A200007F114031946786800F0ACF907F11C038C
:104A300039681846FFF762FFF8627B8DBB84BB8C38
:104A400013F0010F00D162B604E039687868FFF70F
:104A500055FFF862FB6A002B08DAFDF793FE024669
:104A6000FB6A5B4213604FF0FF33FB62FB6A184640
:104A70003037BD4680BD00BF80B582B000AF134B5C
:104A80007B60134B00221A60114B00225A60114BBD
:104A900000221A600F4B00225A6000233B600AE09C
:104AA0007B6803F118027A600949184602F071F830
:104AB0003B6801333B603B680F2BF1DD064B102256
:104AC0001A8000BF0837BD4680BD00BF580B0020CC
:104AD000088B0020148B0020108B002080B588B03C
:104AE00000AF03463960FB710023FB61FB79012BAA
:104AF00004D1386800F0CAF8F86145E0FB79002B72
:104B00003FD107F10803184600F0C0F8F861FB69CF
:104B1000002B39D1EFF3108372B63B823B8A7B8343
:104B2000BA68224B1B681344BB60FB681A461F4BD4
:104B30005B681344FB607B8B7B827B8A13F0010FE5
:104B400000D162B6FB681A4A934213DDFB68194A2A
:104B500082FB03121217DB17D31A7B61BA687B69D9
:104B60001344BB60FB6819467B69134A02FB03F3DD
:104B7000CB1AFB60BA683B681A60FA683B685A60F7
:104B800002E06FF01503FB61FB69002B08DAFDF70B
:104B9000F9FD0246FB695B4213604FF0FF33FB6196
:104BA000FB6918462037BD4680BD00BFD88A00206B
:104BB000FFC99A3BA12FB84400CA9A3B2DE99048FF
:104BC00084B000AF786039607B681B684FF00004E8
:104BD000194A02FB04F1002202FB03F20A441649BF
:104BE000A3FB0134224414467A68526811464FEA06
:104BF000E1725B1844EB0204C7E90234D7E90234DE
:104C000042F20F714FF0000213EB010B44EB020C68
:104C10005846614642F210724FF0000344F09CFE89
:104C200003460C461A463B681A60002318461037A4
:104C3000BD46BDE8908800BF00CA9A3B80B485B0ED
:104C400000AF786039607B680E4A82FB0312521312
:104C5000DB17D31A1A463B681A607A683B681B68F0
:104C6000094901FB03F3D31AFB60FB6842F210729F
:104C700002FB03F23B685A60002318461437BD4616
:104C800080BC704789B5F814A08601002DE9F04F6B
:104C90008FB000AFF861394B1A6813469B0013447C
:104CA0005B004FF00004C7E90C34D7E90C01344A2B
:104CB0004FF0000344F0A0FE03460C46C7E90A3457
:104CC000D7E90A120B4614464FEA441949EAD36958
:104CD0004FEA431843464C465B1A64EB02046002F9
:104CE0007861786940EAD35078615B023B61D7E92B
:104CF00004345B1844EB0204A60146EA93669D0166
:104D0000ED1A66EB04066B1846EB0204D7E90C12A9
:104D1000C91A62EB04020B4614466001F860F86899
:104D200040EAD360F8605B01BB60D7E902345B1AEC
:104D300064EB0204A0007860786840EA93707860C1
:104D40009B003B60D7E900345B1844EB02044FEA58
:104D5000C40B4BEA537B4FEAC30A53465C46C7E990
:104D60000834BA6AFB691A603A6AFB695A60002320
:104D700018463C37BD46BDE8F08F00BF400B002011
:104D800040420F0080B487B000AFF860B9607A602D
:104D9000FB681A68BB681B689A4204D200237B61D7
:104DA00000233B612EE0FB681A68BB681B689A42CF
:104DB0000AD1FB685A68BB685B689A4204DC00232E
:104DC0007B6100233B611DE0FB681A68BB681B68C0
:104DD000D31A7B61FB685A68BB685B689A420BDA3E
:104DE000FB685A680D4B1344BA6852689B1A3B61C2
:104DF0007B69013B7B6105E0FB685A68BB685B68C7
:104E0000D31A3B617B687A691A607B683A695A6099
:104E100000BF1C37BD4680BC704700BF00CA9A3B2C
:104E200080B586B000AF78600B46FB700023FB7244
:104E30007B689B68FB607B681B799BB23B82072386
:104E4000BB747B681868FA1C07F10C01012301F0A0
:104E500092FD78617B69002B08DA7B69114A12495F
:104E6000032002F0FBF97B69DBB216E07B6818686F
:104E700007F10B0207F10C01012301F04DFD7861F0
:104E80007B69002B08DA7B69064A0849032002F097
:104E9000E5F97B69DBB200E0FB7A18461837BD46BE
:104EA00080BD00BF9C9E0508BC9C0508E09C0508D1
:104EB00080B588B000AF78600B46FB700023FB81A3
:104EC0007B689B683B617B681B799BB2BB82072335
:104ED000BB757B681868FA1C07F11001012301F00B
:104EE0004AFDF861FB69002B08DAFB69184A194989
:104EF000032002F0B3F9FB699BB225E07B681868D8
:104F000007F10E0207F11001022301F005FDF8611F
:104F1000FB69002B08DAFB690D4A0F49032002F0F8
:104F20009DF9FB699BB20FE0FB89DBB27B83FB89B8
:104F30001B0A3B837B8B1B021AB2B7F91830134351
:104F40001BB29BB2FB81FB8918462037BD4680BD52
:104F5000AC9E0508BC9C0508E09C050880B586B0A1
:104F600000AF78600B46FB701346BB707B689B6894
:104F7000FB607B681B799BB23B820723BB74FB7889
:104F80003B72BB787B727B68186807F1080207F1F7
:104F90000C01022301F0EFFC78617B69002B06DA3B
:104FA0007B69054A0549032002F058F900E000BF7B
:104FB0001837BD4680BD00BFBC9E0508BC9C0508D7
:104FC00080B584B000AF78600023FB73D02178688F
:104FD000FFF726FF0346FB73FB7B0A4A0A490620BC
:104FE00002F03CF9FB7B552B07D0064A074903200A
:104FF00002F034F96FF0120300E000231846103776
:10500000BD4680BDCC9E0508009D0508149D050881
:1050100080B582B000AF7860AA217868FFF748FFBA
:1050200003461AB27B689A81AC217868FFF740FF8B
:1050300003461AB27B68DA81AE217868FFF738FF41
:1050400003461AB27B681A82B0217868FFF730FFF6
:1050500003461A467B685A82B2217868FFF728FF18
:1050600003461A467B689A82B4217868FFF720FFCE
:1050700003461A467B68DA82B6217868FFF718FF84
:1050800003461AB27B681A83B8217868FFF710FFCD
:1050900003461AB27B685A83BA217868FFF708FF83
:1050A00003461AB27B689A83BC217868FFF700FF39
:1050B00003461AB27B68DA83BE217868FFF7F8FEF0
:1050C00003461AB27B681A8400BF0837BD4680BD0C
:1050D00080B584B000AF7860C023FB732E22F4212A
:1050E0007868FFF73BFF41F28830FFF741F8F6217F
:1050F0007868FFF7DDFE03461A467B685A62FB7B41
:1051000043F03403DBB21A46F4217868FFF726FF38
:1051100046F29C30FFF72CF8F6217868FFF7C8FEBE
:1051200003461A027B689A62F8217868FFF778FED6
:1051300003461A467B689B6A1A437B689A627B68BF
:105140009A6AFB7B9B09DBB2C3F108031A417B68B7
:105150009A627B685B6A084A0849062002F07EF87A
:105160007B689B6A044A0649062002F077F800BF74
:105170001037BD4680BD00BFDC9E0508349D050884
:10518000589D050880B58EB000AF7860032387F87E
:1051900033307B68B3F90C30002B2ED07B68B3F929
:1051A0000E30002B29D07B68B3F91030002B24D0AF
:1051B0007B685B8A002B20D07B689B8A002B1CD0ED
:1051C0007B68DB8A002B18D07B68B3F91830002B82
:1051D00013D07B68B3F91A30002B0ED07B68B3F97B
:1051E0001C30002B09D07B68B3F91E30002B04D093
:1051F0007B68B3F92030002B02D17868FFF708FFF5
:105200007868FFF765FF7B685B6A7A68D28A9B1AC9
:105210007A68928A02FB03F3DB13FB627B68B3F9C3
:105220001E30DA027B68B3F920301946FB6A0B4462
:1052300092FBF3F3BB62FA6ABB6A13447B627B6A3C
:1052400008331B113B623B6A4D4A4E49062002F06F
:1052500005F87B6AA3F57A63FB617B68B3F91A30C2
:105260001946FB69FA6902FB03F31B1303FB01F305
:10527000DB12FB627B68B3F90E301A46FB6903FB55
:1052800002F3DB12BB62FA6ABB6A1344BB617B6840
:10529000B3F90C309A00BB691A4497F8333002FA1C
:1052A00003F302339B107B617B68B3F910301A461D
:1052B000FB6903FB02F35B13FB627B68B3F91830F5
:1052C0001946FB69FA6902FB03F31B1303FB01F3A5
:1052D0001B14BB62FA6ABB6A134402339B10BB61A6
:1052E0007B685B8A1A46BB6903F5004303FB02F344
:1052F000DB0B3B617B689A6A7B69D31A194697F886
:1053000033304CF2503242FA03F303FB01F3FB60FB
:10531000FB68002B06DBFB685A003B69B2FBF3F32A
:105320007B6305E0FA683B69B2FBF3F35B007B63E8
:105330007B6B1B127A6B121202FB03F3FB62FB6A9C
:1053400040F6DE3202FB03F31B14FB627B6B0E4A5A
:1053500002FB03F31B14BB62FA6ABB6A134403F635
:10536000CF631B117A6B13447B637B6B044A074941
:10537000062001F073FF7B6B18463837BD4680BDB1
:10538000F49E05087C9D050843E3FFFFA09D0508EA
:1053900080B483B000AF7860002318460C37BD4658
:1053A00080BC704780B483B000AF7860002318469B
:1053B0000C37BD4680BC704780B588B000AFF86040
:1053C000B9607A60FB689B68FB61FB691B69BB6124
:1053D000BB687B61BB68002B07D10F4A0F490320D4
:1053E00001F03CFF4FF0FF3312E07B68042B07D045
:1053F000094A0B49032001F031FF4FF0FF3307E06A
:10540000B869FFF7BFFE03461A467B691A6004239A
:1054100018462037BD4680BD089F0508C09D050879
:10542000DC9D050880B485B000AFF860B9607A6093
:105430006FF0570318461437BD4680BC704780B5DF
:1054400084B000AF786039602C2002F01DF8F8605D
:10545000FB68002B07D1224A2249032001F0FEFEFF
:105460006FF00B0337E0FB683A681A60FB6877223D
:105470001A71FB681C4A9A60F868FFF7A1FDB860D2
:10548000BB68002B0ADABB68154A1849032001F0F3
:10549000E5FEF86801F0EAFFBB681CE0F868FFF77A
:1054A000B7FDFB684FF4DB72114978683FF066FE88
:1054B000B860BB68002B08DABB68094A0B490320B7
:1054C00001F0CCFEF86801F0D1FF054A0949062039
:1054D00001F0C4FEBB6818461037BD4680BD00BF52
:1054E000149F0508209E0508A0860100489E050817
:1054F0009C9C0508749E050880B584B000AF786058
:105500000B46FB70786846F08BFDF860FB68002B5B
:1055100004DAFB78002B01D0FB6804E0FB6813F190
:10552000040FEFD0FB6818461037BD4680BD80B52C
:1055300084B000AF78600B46FB700023FB6023E073
:105540007A68FB680C339B0013445B68BB60BB68E4
:10555000002B16D0BB685A79BB681B7943F00C034B
:10556000D9B2FB780B40DBB21343DAB2BB685A7195
:10557000BB685B79002B04D0BB68DB681846FEF77C
:105580001DFAFB680133FB60FB68012BD8DD00BF0F
:105590001037BD4680BD80B588B000AFF860B960F7
:1055A0001346FB71FB68DB8A1BB20133FB61FB68AE
:1055B000B3F91A301A46FB699A4201DC0023FB61F9
:1055C000FB681B8B1BB21A46FB699A420ED0FB6824
:1055D000DB69FA68D28A12B21344BA68D2B21A707E
:1055E000FB691AB2FB68DA82002348E0FB79002BE2
:1055F00043D0EFF3108372B6BB82BB8AFB82FB6899
:105600001B8B1BB21A46FB699A4202D00023BB6176
:105610001EE0FB68DB78DBB2002B03D06FF07F036A
:10562000BB6115E0FB6801225A70FB68DB6A5B6AAC
:105630000121F8689847FB680E3301211846FFF7EF
:105640005BFFB861FB68DB6A5B6A0021F86898471A
:10565000FB8A7B827B8A13F0010F00D162B6FB6864
:10566000DB78DBB2002B02D06FF07F0307E0BB6971
:10567000002BA5DA6FF0030301E06FF00A03184670
:105680002037BD4680BD80B582B000AF78603960FC
:1056900000BF7B68DB6A9B6A786898470346002BEB
:1056A000F7D07B68DB6A1B6A39687868984700BF67
:1056B0000837BD4680BD80B586B000AFF860B960E0
:1056C0007A607B683B6129E0BB685A1CBA601B7832
:1056D0007B61FB681B8903F00103002B17D07B69FA
:1056E0000D2B07D1FB681B8903F00803002B01D0A9
:1056F0000A237B617B690A2B09D1FB681B8903F0B4
:105700002403002B03D00D21F868FFF7BCFF796953
:10571000F868FFF7B8FF7B68013B7B607B68002B74
:10572000D2D13B6918461837BD4680BD80B588B0D8
:1057300000AF786039607B68143301211846FFF7A9
:10574000DBFEF861FB69002B62DBEFF3108372B6BE
:10575000FB81FB897B837B68DB78DBB2002B08D085
:105760007B68DB8A1AB27B681A836FF07F03FB6168
:1057700023E00023FB6115E07B6801225A707B68FF
:10578000DB6A5B6A0121786898477B680E330121E8
:105790001846FFF7B1FEF8617B68DB6A5B6A00219F
:1057A00078689847FB69002B07DB7B68DB8A1AB2B5
:1057B0007B681B8B1BB29A42DED17B8BBB81BB8982
:1057C00013F0010F00D162B6144B1B687B61FB69BB
:1057D000002B18DB0FE04FF47A70FEF7C9FC0F4B7B
:1057E0001A687B69D31A3B613A693B689A4202D3D3
:1057F0006FF073030DE07B68DB6ADB6A78689847BB
:105800000346002BE7D07B6814331846FEF7D6F822
:10581000FB6918462037BD4680BD00BF400B002005
:1058200080B588B000AF78607B689B68BB61BB695E
:105830001B697B617B690C3301211846FFF75CFE15
:10584000F861FB69002B01DAFB695DE07B69DB78BD
:10585000DBB2002B03D06FF07F03FB614EE07B696E
:105860001B780133FB74FB7C002B03D16FF0170313
:10587000FB6143E0FB7C012B3DD1EFF3108372B65B
:10588000FB81FB893B827B691B79002B10D17B69F3
:10589000DB6A1B6878699847F861FB69002B07DAB7
:1058A0003B8ABB81BB8913F0010F00D162B625E0B2
:1058B0007B69DB6A9B6878699847F861FB69002B14
:1058C0000CDA7B69DB6A5B68786998473B8A7B8185
:1058D0007B8913F0010F00D162B60FE07B69DB6AB0
:1058E0009B690121786998473B8A3B813B8913F08A
:1058F000010F00D162B67B69FA7C1A707B690C33A8
:105900001846FEF75BF8FB6918462037BD4680BD98
:1059100080B586B000AF78607B689B687B617B69EF
:105920001B693B613B690C3300211846FFF7E4FD1E
:105930003B691B78012B0CD93B691B78013BDAB220
:105940003B691A703B690C331846FEF737F80023A1
:1059500036E03B6900221A703B69DB6A9B690021D3
:10596000386998477B681B6803F04003002B03D11C
:1059700015493869FFF7DAFEEFF3108372B6BB8181
:10598000BB89FB813B69DB6ADB68386998473B6907
:105990001B79002B04D13B69DB6A5B683869984747
:1059A000FB897B817B8913F0010F00D162B63869D6
:1059B00000F0A9FC3B690C331846FDF7FFFF0023FC
:1059C00018461837BD4680BD801A060080B58CB0D9
:1059D00000AFF860B9607A60FB689B683B623B6A25
:1059E0001B69FB61FB692033BB610023FB62BB6960
:1059F00001211846FFF780FD78627B6A002B80F258
:105A0000CA807B6ADEE0FB69DB78DBB2002B07D063
:105A1000FB6A002B40F0C5806FF07F03FB62C0E0A3
:105A2000BB699B887B85BB695B881BB2B7F92A2061
:105A30009A4252D0BB699A68B7F92A3013441B784E
:105A400087F829307B8D01339BB27B85BB69B3F925
:105A50000630B7F92A209A4201DB00237B85BB6917
:105A60007A8D9A80FB69DB8803F02A03002B2AD009
:105A700097F829300A2B09D1FB69DB8803F0200352
:105A8000002B03D00D2387F829300CE097F829303C
:105A90000D2B08D1FB69DB8803F00203002B02D039
:105AA0000A2387F8293097F829300D2B0CBF0123E2
:105AB0000023DBB21A46FB69DB8803F008031340BE
:105AC000002B00D067E0BB685A1CBA6097F8292009
:105AD0001A70FB6A0133FB625DE0FB6A002B62DC3B
